:0200000460009A
:10000000464346420004015600000000000303007E
:1000100000000000000000000000000000000000E0
:1000200000000000000000000000000000000000D0
:1000300000000000000000000000000000000000C0
:1000400000000000000403000000000000000000A9
:100050000000400000000000000000000000000060
:100060000000000000000000000000000000000090
:100070000000000000000000000000000000000080
:10008000EB04180A063204260000000000000000FD
:100090000000000000000000000000000000000060
:1000A0000000000000000000000000000000000050
:1000B0000000000000000000000000000000000040
:1000C0000000000000000000000000000000000030
:1000D0000000000000000000000000000000000020
:1000E0000000000000000000000000000000000010
:1000F0000000000000000000000000000000000000
:1001000000000000000000000000000000000000EF
:1001100000000000000000000000000000000000DF
:1001200000000000000000000000000000000000CF
:1001300000000000000000000000000000000000BF
:1001400000000000000000000000000000000000AF
:10015000000000000000000000000000000000009F
:10016000000000000000000000000000000000008F
:10017000000000000000000000000000000000007F
:10018000000000000000000000000000000000006F
:10019000000000000000000000000000000000005F
:1001A000000000000000000000000000000000004F
:1001B000000000000000000000000000000000003F
:1001C000000100000010000000000000000000001E
:1001D000000001000000000000000000000000001E
:1001E000000000000000000000000000000000000F
:1001F00000000000000000000000000000000000FF
:10100000D10020410020006000000000301000608E
:1010100020100060001000600000000000000000D0
:10102000000000600000400000000000FFFFFFFF24
:10103000D203E041CC035C04400FC068FFFFFFFF18
:10104000400FC06CFFFFFFFF400FC070FFFFFFFFAE
:10105000400FC074FFFFFFFF400FC078FFFFFFFF8E
:10106000400FC07CFFFFFFFF400FC080FFFFFFFF6E
:10107000400D803000002001400D8100001800006C
:10108000400FC014000D8340401F8014000000007A
:10109000401F801800000000401F801C000000005E
:1010A000401F802000000000401F8024000000003E
:1010B000401F802800000000401F802C000000001E
:1010C000401F803000000000401F803400000000FE
:1010D000401F803800000000401F803C00000000DE
:1010E000401F804000000000401F804400000000BE
:1010F000401F804800000000401F804C000000009E
:10110000401F805000000000401F8054000000007D
:10111000401F805800000000401F805C000000005D
:10112000401F806000000000401F8064000000003D
:10113000401F806800000000401F806C000000001D
:10114000401F807000000000401F807400000000FD
:10115000401F807800000000401F807C00000000DD
:10116000401F808000000000401F808400000010AD
:10117000401F808800000000401F808C000000009D
:10118000401F809000000000401F8094000000007D
:10119000401F809800000000401F809C000000005D
:1011A000401F80A000000000401F80A4000000003D
:1011B000401F80A800000000401F80AC000000001D
:1011C000401F80B000000000401F8188000000E147
:1011D000401F818C000000E1401F8190000000E171
:1011E000401F8194000000E1401F8198000000E151
:1011F000401F819C000000E1401F81A0000000E131
:10120000401F81A4000000E1401F81A8000000E110
:10121000401F81AC000000E1401F81B0000000E1F0
:10122000401F81B4000000E1401F81B8000000E1D0
:10123000401F81BC000000E1401F81C0000000E1B0
:10124000401F81C4000000E1401F81C8000000E190
:10125000401F81CC000000E1401F81D0000000E170
:10126000401F81D4000000E1401F81D8000000E150
:10127000401F81DC000000E1401F81E0000000E130
:10128000401F81E4000000E1401F81E8000000E110
:10129000401F81EC000000E1401F81F0000000E1F0
:1012A000401F81F4000000E1401F81F8000000E1D0
:1012B000401F81FC000000E1401F8200000000E1AF
:1012C000401F8204000000E1401F8208000000E18E
:1012D000401F820C000000E1401F8210000000E16E
:1012E000401F8214000000E1401F8218000000E14E
:1012F000401F821C000000E1401F8220000000E12E
:10130000401F8224000000E1402F00001000000078
:10131000402F000800000081402F000C00000081D9
:10132000402F00108000001B402F00148200001B83
:10133000402F00188400001B402F00040000798813
:10134000402F004000000F07402F00440065292275
:10135000402F004800010920402F004C50210A086E
:10136000402F008000000021402F008400888888E2
:10137000402F009400000002402F00980000000061
:10138000402F009080000000402F009CA55A000FC5
:10139000CF000C1C402F003C00000001CC001404C6
:1013A000402F009080000000402F009CA55A000CA8
:1013B000CF000C1C402F003C00000001CC001404A6
:1013C000402F009080000000402F009CA55A000C88
:1013D000CF000C1C402F003C00000001CC001C047E
:1013E000402F00A000000030402F0090800000003F
:1013F000402F009CA55A000ACF000C1C402F003C37
:1014000000000001CC000C04402F004C50210A09C0
:1020000000000120BD15026077F501607FF50160D9
:1020100087F501608FF5016097F501600000000011
:102020000000000000000000000000008DA500601E
:1020300073A700600000000035A500609392006067
:102040009DC50260A5C50260ADC50260B5C5026050
:10205000BDC50260C5C50260CDC50260D5C50260C0
:10206000DDC50260E5C50260EDC50260F5C5026030
:10207000FDC5026005C602600DC6026015C602609D
:102080001DC60260BDC70260BDC70260BDC7026059
:1020900025C602602DC6026035C602603DC60260DC
:1020A00045C602604DC6026055C602605DC602604C
:1020B00065C602606DC6026075C602607DC60260BC
:1020C00085C602608DC6026095C602609DC602602C
:1020D000A5C60260ADC60260BDC70260BDC7026092
:1020E000BDC70260BDC70260BDC70260BDC7026058
:1020F000BDC70260BDC70260BDC70260BDC7026048
:10210000BDC70260BDC70260BDC70260BDC7026037
:10211000BDC70260BDC70260BDC70260BDC7026027
:10212000B5C60260BDC60260C5C60260CDC602600B
:10213000D5C60260BDC70260BDC70260BDC70260F0
:10214000BDC70260BDC70260BDC70260BDC70260F7
:10215000832A0160BDC70260BDC70260BDC70260BF
:10216000BDC70260BDC70260BDC70260BDC70260D7
:10217000BDC70260BDC70260BDC70260BDC70260C7
:10218000BDC70260BDC70260D52A3D60BDC7026001
:10219000BDC70260BDC70260BDC70260BDC70260A7
:1021A000BDC70260BDC70260DDC60260BDC7026078
:1021B000BDC70260BDC70260BDC70260BDC7026087
:1021C000BDC70260BDC70260BDC70260BDC7026077
:1021D000C5BF0060CF0C0260BDC70260BDC7026012
:1021E000BDC70260BDC70260BDC70260BDC7026057
:1021F000E5C60260BDC70260EDC60260F5C60260BA
:10220000BDC70260B94C0160FDC6026005C702602F
:10221000BDC70260BDC7026001290160BDC7026081
:10222000BDC70260D1290160ED280160BDC7026011
:10223000BDC70260BDC70260BDC70260BDC7026006
:10224000BDC70260BDC70260BDC70260BDC70260F6
:10225000BDC70260BDC70260D52D0000BDC70260CA
:10226000BDC70260BDC70260BDC70260BDC70260D6
:10227000BDC70260BDC70260BDC70260BDC70260C6
:10228000BDC70260BDC70260BDC70260BDC70260B6
:10229000BDC70260BDC70260BDC70260BDC70260A6
:1022A000BDC70260BDC70260BDC70260BDC7026096
:1022B000BDC70260BDC70260BDC70260BDC7026086
:1022C000BDC70260BDC70260BDC70260BDC7026076
:1022D000BDC70260BDC70260BDC70260BDC7026066
:1022E000BDC70260BDC70260BDC70260BDC7026056
:1022F000BDC70260BDC70260BDC70260BDC7026046
:10230000BDC70260BDC70260BDC70260BDC7026035
:10231000BDC70260BDC70260BDC70260BDC7026025
:10232000BDC70260BDC70260BDC70260BDC7026015
:10233000BDC70260BDC70260BDC70260BDC7026005
:10234000BDC70260BDC70260BDC70260BDC70260F5
:10235000BDC70260BDC70260BDC70260BDC70260E5
:10236000BDC70260BDC70260BDC70260BDC70260D5
:10237000BDC70260BDC70260BDC70260BDC70260C5
:10238000BDC70260BDC70260BDC70260BDC70260B5
:10239000BDC70260BDC70260BDC70260BDC70260A5
:1023A000BDC70260BDC70260BDC70260BDC7026095
:1023B000BDC70260BDC70260BDC70260BDC7026085
:1023C000BDC70260BDC70260BDC70260BDC7026075
:1023D000BDC70260BDC70260BDC70260BDC7026065
:1023E000BDC70260BDC70260BDC70260BDC7026055
:1023F000BDC70260BDC70260BDC70260FFFFFFFF2F
:10240000DFF800F04F200000DFF800F0C3270000E5
:102410007CB5002854D0002952D0002A50D0002B7F
:102420004ED0069D002D4BD0079C002C48D0DFF8E5
:10243000546A3060DFF8500A0160DFF8500A026029
:10244000DFF84C0A0360DFF84C6A3560DFF8485A61
:102450002C60DFF8480A03F0F1FF04F037F8400081
:10246000DFF83C4A05F01DF820602168306805F06F
:102470001EF82168286805F01AF8DFF8284A0120BC
:1024800004F0E5F920602068002803D1DFF8180A7D
:1024900003F0D4FFDFF8140A00210171002101606C
:1024A000DFF80C0A01900420009000234FF4007222
:1024B000DFF8001A0FF2150005F066F8060003E0D9
:1024C000DFF8FC0B03F0BAFF300076BD70B50020DA
:1024D0000020DFF8E40903F0B1FF1BE0DFF8B009EA
:1024E000006885420DD1DFF8D40903F0A7FF08E0AA
:1024F000DFF8980900688542F0D1DFF8C00903F0E1
:102500009DFF5FF08050DFF8B8190860BFF34F8F70
:10251000BFF36F8FDFF8AC090078002843D15FF07C
:10252000FF31DFF87C09006804F0D6FF0500DFF812
:1025300064090068854218D1280004F07EFE04007A
:1025400003E0300000F068F8641E002CD9D0DFF8FA
:10255000746B00223100280004F0C8FB0028F0D181
:10256000DFF8640B03F06AFFEFE7DFF82C0900687F
:102570008542BDD1280004F060FE040003E0300075
:1025800000F09AF8641E002CBBD0DFF8406B0022EC
:102590003100280004F0AAFB0028F0D1DFF8300B4E
:1025A00003F04CFFEFE7002005F00FF970BD38B5E0
:1025B0000C0015002000DBB2002B05D0DFF8CC08A2
:1025C000006804F04FFE04E0DFF8C008006804F083
:1025D00034FEA4B2ADB2641B80B2844204DA12208D
:1025E00005F0ACFE012000E0002032BD38B50C0043
:1025F00015002000DFF89408006804F01EFEA4B265
:10260000ADB2641B80B2844204DA122005F096FE5B
:10261000012000E0002032BD70B50400002C46D03F
:10262000DFF8B05A2868002825D1DFF878686421DF
:10263000306804F00FFC01280CD1DFF89C1A200050
:1026400000F091F82860002300220021306804F097
:1026500051F903E0DFF8840A03F0F0FE286800284F
:1026600004D10120DFF8D01B087024E00020DFF83F
:10267000C81B08701FE0DFF8600AC188242902D057
:10268000C18825290DD12968200000F096F8286816
:10269000412802D2002028600DE0286840382860D8
:1026A00009E0C188DFF8940B03F0C8FE03E0DFF80F
:1026B000900B03F0C3FE70BD70B50400002C4DD02C
:1026C000DFF8805B286800281FD1DFF8D867642115
:1026D000306804F0BFFB012812D1DFF86C1B20002A
:1026E00000F041F82860DFF8C40700210171296873
:1026F0000160002300220021306804F0FBF831E083
:10270000DFF8480B03F09AFE2CE0DFF83C0BC188A1
:10271000062902D0C18866291AD12968200000F054
:1027200023F92868412808D2DFF8800700210171C9
:10273000002129600021016014E0DFF87007012109
:10274000017129684039296001684039016009E058
:10275000C188DFF8E80A03F071FE03E0DFF8E00A61
:1027600003F06CFE70BD70B506000D000024300053
:1027700003F0A8FC2880B61C300003F0A3FC68809E
:10278000B61C300003F09EFCA880B61C300003F09D
:1027900099FCE880B01C03F095FC2881E888242887
:1027A00002D0E888062806D12C89002C03D1DFF856
:1027B000380C03F043FE200070BD80B5002800F007
:1027C000CE800178002952D0012953D0022954D05B
:1027D000032955D0052959D006295AD007295BD09D
:1027E000092900F0AF800A2900F0A2800B297CD0D3
:1027F0000C295BD00D295CD00E2954D00F2971D043
:10280000112959D013295AD0152930D0162934D07E
:10281000172938D0182943D0192969D02E2957D023
:1028200039296BD03B2950D03D2952D03F2953D074
:10283000472900F08D8049291CD04A2900F08B805F
:102840004B297CD04C2976D0A1296ED0AA2939D029
:10285000AE2950D0B82942D0BC2952D0BE2953D07D
:10286000CC2958D0CE2959D0FD296ED076E000F081
:1028700041FF78E001F0A2F875E000F05BFF72E044
:1028800001F07AF86FE000F070FF6CE001F059F8A9
:1028900069E001F03BF866E0407801F01AF862E088
:1028A00000F07EFF5FE001F095F95CE001F068FA6E
:1028B00059E000F090FF56E001F034F953E001F0E8
:1028C000EBF850E000F0A4FF4DE000F0E7FF4AE035
:1028D00049E001F083FA46E001F09EFA43E001F09E
:1028E000E9FB40E001F046F93DE001F0D1FA3AE0C1
:1028F00001F01BFC37E001F04FFB34E001F0A8FAD7
:1029000031E001F04BFB2EE0DFF8E00A03F096FD2A
:1029100001F062FB27E001F07DFB24E0DFF8D00A44
:1029200003F08CFD01F092FB1DE001F0A9FB1AE021
:1029300001F0D0F817E0407801F00CFB13E001F053
:10294000D5FB10E000F082FF0DE001F031FC0AE061
:1029500001F046FC07E001F069FC04E003E0DFF869
:102960008C0B03F06BFD01BD80B5002800F09E804C
:10297000DFF838150979002903D10178DFF8F42A46
:102980001170DFF8F01A0A78002A34D0012A35D005
:10299000022A36D0032A37D0042A38D0052A39D063
:1029A000062A3AD0072A3BD0082A3DD0092A3ED031
:1029B0000B2A40D00D2A41D00E2A42D0102A45D0F1
:1029C000112A46D0132A47D0162A60D0182A46D09A
:1029D000192A59D01E2A48D01F2A49D0212A4AD064
:1029E000232A4BD0242A4CD0262A53D07E2A39D0F1
:1029F000FD2A52D054E002F078FF5BE002F0B0FF15
:102A000058E002F085FF55E003F08AF852E002F04A
:102A100059FF4FE003F044F84CE003F05BF849E065
:102A2000407802F088FF45E003F067F842E0407824
:102A300003F089F83EE003F09BF83BE003F0ABF8CD
:102A400038E08178407803F007F933E003F0C8F804
:102A500030E003F025F92DE003F0DDF82AE003F083
:102A60000AF827E003F054F924E003F06FF921E0BD
:102A700003F08EF91EE003F0B0F91BE003F0D6F985
:102A800018E003F0F9F915E003F016FA12E003F08C
:102A90002DFA0FE003F04EFA0CE001F06AFB09E0BA
:102AA0000978DFF8280B03F0C9FC03E0DFF8240BFA
:102AB00003F0C4FC01BDF0B587B005000D216846E8
:102AC00003F0BCFBDFF8C443206800280DD00023CE
:102AD0005FF0FF326946206803F00CFF012808D040
:102AE000DFF8EC0A03F0AAFC03E0DFF8EC0A03F0DD
:102AF000A5FC002703AE2888F0557F1C0121A81CE7
:102B000003F00AFBF0557F1C0021A81C03F004FB16
:102B1000F0557F1C0121281D03F0FEFAF0557F1CA3
:102B20000021281D03F0F8FAF0557F1C0121A81D93
:102B300003F0F2FAF0557F1C0021A81D03F0ECFA17
:102B4000F0557F1C012115F1080003F0E5FAF0555E
:102B50007F1C002115F1080003F0DEFAF0557F1C00
:102B6000FFF74EFC072805D1022068716879F055FF
:102B70007F1C04E0022068716879F0557F1C0121F8
:102B800015F10A0003F0C8FAF0557F1C002115F179
:102B90000A0003F0C1FAF0557F1C287BF0557F1C1A
:102BA000206800280DD000235FF0FF3203A92068C1
:102BB00003F0A0FE012808D0DFF8140A03F03EFC61
:102BC00003E0DFF8140A03F039FC07B0F0BDF8B5F4
:102BD00084B00500042101A803F05FFBAC4C206821
:102BE00000280CD00023002201A9206803F082FEF7
:102BF000012808D0DFF8E40903F020FC03E0DFF847
:102C0000E00903F01BFC00266F462878B855761CB7
:102C10000121681C03F080FAB855761C0021681C5D
:102C200003F07AFAB855761CE878B855761C206817
:102C300000280CD0002300226946206803F05AFEC9
:102C4000012808D0DFF8940903F0F8FB03E0DFF86F
:102C5000A00A03F0F3FB05B0F0BDF0B587B00500A6
:102C60001021684603F0EAFA884C206800280CD04E
:102C7000002300226946206803F03CFE012808D0AA
:102C8000DFF8680A03F0DAFB03E0DFF8A00A03F0DC
:102C9000D5FB002703AE2888F0557F1C0121A81C16
:102CA00003F03AFAF0557F1C0021A81C03F034FA17
:102CB000F0557F1C2879F0557F1C0121A81D03F0D9
:102CC0002BFAF0557F1C0021A81D03F025FAF055C2
:102CD0007F1C012115F1080003F01EFAF0557F1C3E
:102CE000002115F1080003F017FAF0557F1C0121AF
:102CF00015F10A0003F010FAF0557F1C002115F1C0
:102D00000A0003F009FAF0557F1C6879F0557F1C22
:102D1000287BF0557F1C687BF0557F1CA87BF05505
:102D20007F1CE87BF0557F1C206800280CD0002316
:102D3000002203A9206803F0DDFD012808D0DFF898
:102D4000AC0903F07BFB03E0DFF8E00903F076FB5E
:102D500007B0F0BDF0B58BB005001F21684603F049
:102D60006DFA4A4C206800280CD0002300226946E6
:102D7000206803F0BFFD012808D0DFF8B40903F094
:102D80005DFB03E0DFF8840A03F058FB002703AE85
:102D90000120F0557F1C2878F0557F1C6878F0558D
:102DA0007F1CA878F0557F1CE878F0557F1CA88818
:102DB000F0557F1C0121A81D03F0AEF9F0557F1CD2
:102DC0000021A81D03F0A8F9F0557F1C012115F181
:102DD000080003F0A1F9F0557F1C002115F108004F
:102DE00003F09AF9F0557F1C012115F10A0003F058
:102DF00093F9F0557F1C002115F10A0003F08CF9BE
:102E0000F0557F1C0120A881012115F10C0003F071
:102E100083F9F0557F1C002115F10C0003F07CF9BB
:102E2000F0557F1C012115F1100003F075F9F055E4
:102E30007F1C002115F1100003F06EF9F0557F1C86
:102E4000688AF0557F1CA88AF0557F1CA87DF05534
:102E50007F1CE87DF0557F1C206800280CD00023E3
:102E6000002203A9206803F045FD012808D0DFF8FF
:102E7000C00803F0E3FA03E0DFF8900903F0DEFA9C
:102E80000BB0F0BD505B2220545B22203C5B222023
:102E9000405B2220445B2220485B222018A802606D
:102EA0004C5B2220585B2220588202605C5B22200F
:102EB000385B2220E4C1026078A10260888202604F
:102EC00004ED00E0146422202DE9F8418FB00600E3
:102ED0000D00DFF874492B00DBB204225A21206870
:102EE000FFF765FB002840F0E7802800C0B200280B
:102EF00004D00E2101A803F0A1F903E00E2104A8DB
:102F000003F09CF92068002817D02800C0B20028E0
:102F100006D00023002201A9206803F0D5FD05E0BA
:102F20000023002204A9206803F0E4FC012808D053
:102F3000DFF8600903F082FA03E0DFF85C0903F0D0
:102F40007DFA5FF0000800272800C0B2002840D0BA
:102F50000DF11C08042008F807007F1C307808F8E1
:102F600007007F1C707808F807007F1CB07808F80D
:102F700007007F1CF07808F807007F1C307908F8FC
:102F800007007F1C707908F807007F1C0121B01D25
:102F900003F0C2F808F807007F1C0021B01D03F001
:102FA000BBF808F807007F1C307A08F807007F1C80
:102FB000707A08F807007F1CB07A08F807007F1CB9
:102FC000F07A08F807007F1C307B08F807007F1CA8
:102FD0004CE00BAF042007F8080018F10108307826
:102FE00007F8080018F10108707807F8080018F1D0
:102FF0000108B07807F8080018F10108F07807F820
:10300000080018F10108307907F8080018F10108E4
:10301000707907F8080018F101080121B01D03F0CC
:103020007BF807F8080018F101080021B01D03F033
:1030300073F807F8080018F10108307A07F808005B
:1030400018F10108707A07F8080018F10108B07A41
:1030500007F8080018F10108F07A07F8080018F1DD
:103060000108307B07F8080018F1010820680028E3
:103070001ED0EDB2002D0CD1002300220BA9206838
:1030800003F038FC012817D0DFF8240903F0D6F943
:1030900012E00020009000236A4607A9206803F090
:1030A00013FD012808D0DFF8080903F0C7F903E091
:1030B000DFF81C0A03F0C2F910B0BDE8F08100008F
:1030C00050A102606C00002078580260B800002017
:1030D000B0580260645B2220685B22201C6B026097
:1030E00070B58EB005000A2103A803F0A7F8DFF839
:1030F000584704225A212068FFF778FA002840F048
:103100009880206800280CD00023002203A92068A2
:1031100003F0F0FB012808D0DFF8980803F08EF9DF
:1031200003E0DFF8940803F089F90026DFF864096A
:103130008078C00703D50120A5F8010002E0002037
:10314000A5F8010048208DF80000B5F8010000281E
:1031500001D0012000E000208DF80100FFF750F9B8
:10316000072803D102208DF8020002E002208DF82A
:103170000200B5F80500002801D0012000E0002081
:103180008DF80300FFF740F98DF80400B5F807004B
:103190008DF80500B5F81B00ADF80600B5F809007C
:1031A000ADF8080006AD9DF80000A855761C9DF806
:1031B0000100A855761C9DF80200A855761C9DF8C4
:1031C0000300A855761C9DF80400A855761C9DF8B0
:1031D0000500A855761C01210DF1060002F09CFFA8
:1031E000A855761C00210DF1060002F095FFA855A8
:1031F000761C012102A802F08FFFA855761C002141
:1032000002A802F089FFA855761C206800280CD07F
:103210000023002206A9206803F06CFB012808D0D7
:10322000DFF84C0903F00AF903E0DFF8900903F036
:1032300005F90EB070BD000015642220B88202604E
:103240003CA80260745B2220785B2220E858026070
:10325000F0B587B004000D21684602F0EFFFDFF8FB
:10326000E855286800280CD0002300226946286809
:1032700003F040FB012808D0DFF8440903F0DEF832
:1032800003E0DFF8400903F0D9F8002603AF207807
:10329000B855761C0121601C02F03EFFB855761C23
:1032A0000021601C02F038FFB855761C0121E01C9B
:1032B00002F032FFB855761C0021E01C02F02CFF12
:1032C000B855761C0121601D02F026FFB855761C0A
:1032D0000021601D02F020FFB855761C0121E01D81
:1032E00002F01AFFB855761C0021E01D02F014FF11
:1032F000B855761C012114F1090002F00DFFB855F4
:10330000761C002114F1090002F006FFB855761C66
:10331000012114F10B0002F0FFFEB855761C0021CC
:1033200014F10B0002F0F8FEB855761C286800284E
:103330000CD00023002203A9286803F0DBFA01283F
:1033400008D0DFF8840803F079F803E0DFF82C0AEE
:1033500003F074F807B0F0BDF8B584B0050004219F
:1033600001A802F06BFFDFF8E044206800280CD0D1
:103370000023002201A9206803F0BCFA012808D02C
:10338000DFF8480803F05AF803E0DFF8440803F0D8
:1033900055F800266F462878B855761C6878B855D9
:1033A000761C0121A81C02F0B7FEB855761C00213E
:1033B000A81C02F0B1FEB855761C206800280CD07D
:1033C000002300226946206803F094FA012808D0FF
:1033D000DFF8F80703F032F803E0DFF8380A03F00B
:1033E0002DF805B0F0BD0000A0A10260506B026096
:1033F000846B026038B584B00400012101A802F09A
:103400001DFFDFF8445404225A212868FFF7EEF824
:1034100000282CD1286800280CD00023002201A904
:10342000286803F067FA012808D0DFF85C0A03F087
:1034300005F803E0DFF8540A03F000F8AD208DF83A
:1034400000008DF80140286800280CD000230022DD
:103450006946286803F04EFA012808D0DFF8280AE8
:1034600002F0ECFF03E0DFF86C0B02F0E7FF05B0C1
:1034700030BD00001664222038B584B0040002215B
:1034800001A802F0DBFEDFF8C053286800280CD04A
:103490000023002201A9286803F016FB012808D0A8
:1034A000DFF8EC0A02F0CAFF03E0DFF8E80A02F0F6
:1034B000C5FF002069463A220A54401C0C54286873
:1034C00000280CD0002300226946286803F012FA75
:1034D000012808D0DFF8B80A02F0B0FF03E0DFF8F7
:1034E000680B02F0ABFF05B030BD0000EC96026047
:1034F000F8B586B004000A2103A802F09FFEBD20A3
:103500002070DFF84453286800280CD000230022E4
:1035100003A9286803F0EEF9012808D0DFF8EC0AC7
:1035200002F08CFF03E0DFF8E80A02F087FF0026D4
:103530006F462078B855761C6078B855761C012106
:10354000A01C02F0E9FDB855761C0021A01C02F079
:10355000E3FDB855761C0121201D02F0DDFDB855B4
:10356000761C0021201D02F0D7FDB855761C0121E4
:10357000A01D02F0D1FDB855761C0021A01D02F05F
:10358000CBFDB855761C012114F1080002F0C4FDF2
:10359000B855761C002114F1080002F0BDFDB855A5
:1035A000286800280CD0002300226946286803F010
:1035B000A1F9012808D0DFF8540A02F03FFF03E028
:1035C000DFF8240B02F03AFF07B0F0BD205902608B
:1035D000E88202601897026044970260B86B02604C
:1035E000188302602DE9F84793B00600042168466D
:1035F00002F024FE944C206800280CD00023002206
:103600006946206803F060FA012808D0DFF8980BBB
:1036100002F014FF03E0DFF8940B02F00FFF002527
:103620007000402190FBF1F75FF0000829E0DFF81F
:10363000F80B02F003FF22E00DF10C0A280004F061
:1036400064FF0AF8090019F10109280004F05AFF83
:103650006D1C0AF8090019F10109B9F1400FEBDB03
:1036600020680028E3D00023002203A9206803F08B
:1036700041F9012803D0DFF8300B02F0DFFE18F12A
:103680000108B84502DA5FF00009E6E7701B002880
:1036900029D0761B5FF000080FE003AF280004F08C
:1036A00034FF07F8080018F10108280004F02AFF89
:1036B0006D1C07F8080018F10108B045EDDB206823
:1036C00000280CD00023002203A9206803F012F97F
:1036D000012808D0DFF8D00A02F0B0FE03E0DFF8DE
:1036E000480B02F0ABFE14B0BDE8F087EC6B026053
:1036F000488302601CB500208DF80000DFF8144CF0
:10370000206800280CD0002300226946206803F0BE
:10371000F1F8012808D0DFF8000C02F08FFE03E07A
:10372000DFF8F80B02F08AFE13BD00007883026018
:10373000A88302601CB516208DF80000DFF8D44B7A
:10374000206800280CD0002300226946206803F07E
:10375000D1F8012808D0DFF8C80B02F06FFE03E0B3
:10376000DFF8C00B02F06AFE13BD1CB517208DF800
:103770000000DFF8A04B206800280CD000230022B6
:103780006946206803F0B6F8012808D0DFF8980BE6
:1037900002F054FE03E0DFF8940B02F04FFE13BD7D
:1037A0001CB518208DF80000DFF8684B2068002851
:1037B0000CD0002300226946206803F09BF8012802
:1037C00008D0DFF86C0B02F039FE03E0DFF8640B81
:1037D00002F034FE13BD1CB50D208DF80000DFF89B
:1037E000344B206800280CD0002300226946206852
:1037F00003F080F8012808D0DFF83C0B02F01EFE31
:1038000003E0DFF8380B02F019FE13BDD883026025
:103810001CB5AA208DF80000DFF8F84A20680028BF
:103820000CD0002300226946206803F063F80128C9
:1038300008D0DFF80C0B02F001FE03E0DFF8040B08
:1038400002F0FCFD13BD00003C5B22201CB50921E9
:103850008DF800104078002801D0012000E0002001
:103860008DF80100DFF8AC4A206800280CD0002356
:1038700000226946206803F03DF8012808D0DFF8EF
:10388000C80A02F0DBFD03E0DFF8C00A02F0D6FD53
:1038900013BD000008840260388402601CB53B2020
:1038A0008DF80000DFF86C4A206800280CD0002357
:1038B00000226946206803F01DF8012808D0DFF8CF
:1038C000900A02F0BBFD03E0DFF8E00C02F0B6FD69
:1038D00013BD1CB507218DF800108DF80100DFF82D
:1038E000344A206800280CD0002300226946206852
:1038F00003F000F8012808D0DFF8B40C02F09EFDB8
:1039000003E0DFF8B00C02F099FD13BD1CB50620F2
:103910008DF80000DFF8FC49206800280CD0002357
:1039200000226946206802F0E5FF012808D0DFF890
:10393000880C02F083FD03E0DFF8800C02F07EFDCE
:1039400013BD1CB505208DF80000DFF8C8492068BC
:1039500000280CD0002300226946206802F0CAFF2C
:10396000012808D0DFF8580C02F068FD03E0DFF80A
:10397000540C02F063FD13BD1CB503208DF800004C
:10398000DFF89049206800280CD000230022694607
:10399000206802F0AFFF012808D0DFF82C0C02F0FD
:1039A0004DFD03E0DFF8240C02F048FD13BD0000DC
:1039B00068840260206C0260C884026010B588B020
:1039C00001218DF80010441C200002F083FB8DF8CB
:1039D0000100201D01788DF80210001D01788DF87E
:1039E0000310001D01788DF80410401C01788DF83B
:1039F0000510401C0178ADF80610441C200002F0B0
:103A000069FBADF80800A41C200002F063FBADF8D0
:103A10000A00A41C200002F05DFBADF80C00A41C01
:103A2000200002F057FBADF80E00A41C200002F0AD
:103A300051FBADF81000A41C200002F04BFBADF8C8
:103A40001200A01C0178ADF81410401C0178ADF8EC
:103A50001610401C01788DF81810401C01788DF864
:103A60001910401C0078002801D0012000E000203F
:103A70008DF81A00002300226946DFF898080068D4
:103A800002F038FF012803D0DFF8440B02F0D6FC27
:103A900008B010BD346322201CB513208DF800003F
:103AA000DFF87048206800280CD000230022694607
:103AB000206802F01FFF012808D0DFF8180B02F081
:103AC000BDFC03E0DFF8100B02F0B8FC13BD0000F2
:103AD000988402601CB50A218DF80010401C017802
:103AE0008DF80110401C01788DF80310401C0178FE
:103AF0008DF80210401CDFF81C48206800280CD00C
:103B0000002300226946206802F0F4FE012808D054
:103B1000DFF8C80A02F092FC03E0DFF8C40A02F002
:103B20008DFC13BD1CB511218DF80010441C200024
:103B300002F0D0FAADF80100A01C02F0CBFAADF80B
:103B40000300DFF8D047206800280CD000230022B3
:103B50006946206802F0CEFE012808D0DFF8840A0A
:103B600002F06CFC03E0DFF8800A02F067FC13BD92
:103B7000546C02601CB50F218DF80010401C0178B8
:103B80008DF80110401C00788DF80200DFF88447A2
:103B9000206800280CD0002300226946206802F02B
:103BA000A9FE012808D0DFF8680D02F047FC03E009
:103BB000DFF8600D02F042FC13BD0000886C02606B
:103BC000BC6C0260F8840260F06C0260586D0260A8
:103BD0002885026018B591B00E218DF80010441CA4
:103BE000200002F077FAADF80100A41C200002F0DA
:103BF00071FAADF80300A41C200002F06BFAADF8D6
:103C00000500A41C200002F065FAADF80700A41C12
:103C1000200002F05FFAADF80900A41C200002F0B9
:103C200059FAADF80B00A41C200002F053FAADF8CD
:103C30000D00A41C200002F04DFAADF80F00A41CEA
:103C4000200002F047FAADF81100A41C200002F099
:103C500041FAADF81300A41C200002F03BFAADF8C5
:103C60001500A41C200002F035FAADF81700A41CC2
:103C7000200002F02FFAADF81900A41C200002F079
:103C800029FAADF81B00A41C200002F023FAADF8BD
:103C90001D00A41C200002F01DFAADF81F00A41C9A
:103CA000200002F017FAADF82100A41C200002F059
:103CB00011FAADF82300A41C200002F00BFAADF8B5
:103CC0002500A41C200002F005FAADF82700A41C72
:103CD000200002F0FFF9ADF82900A41C200002F03A
:103CE000F9F9ADF82B00A41C200002F0F3F9ADF8AF
:103CF0002D00A41C200002F0EDF9ADF82F00A41C4B
:103D0000200002F0E7F9ADF83100A41C200002F019
:103D1000E1F9ADF83300A41C200002F0DBF9ADF8A6
:103D20003500A41C200002F0D5F9ADF83700A41C22
:103D3000200002F0CFF9ADF83900A41C200002F0F9
:103D4000C9F9ADF83B00A41C200002F0C3F9ADF89E
:103D50003D00A01C02F0BEF9ADF83F000023642234
:103D60006946DFF8B005006802F0C4FD012803D001
:103D7000DFF8400D02F062FB12B010BD246D02604E
:103D80001CB50C218DF80010401C01788DF8011035
:103D9000001D01788DF80210041D200002F09AF930
:103DA000ADF80300201D02F095F9ADF80500DFF82D
:103DB0006445206800280CD0002300226946206852
:103DC00002F098FD012808D0DFF8EC0C02F036FB79
:103DD00003E0DFF8E80C02F031FB13BD1CB53D2019
:103DE0008DF80000DFF82C45206800280CD0002357
:103DF00000226946206802F07DFD012808D0DFF826
:103E0000C00C02F01BFB03E0DFF8B80C02F016FB5D
:103E100013BD00008C6D02601CB53F208DF80000C2
:103E2000DFF8F044206800280CD000230022694607
:103E3000206802F05FFD012808D0DFF88C0C02F04A
:103E4000FDFA03E0DFF8840C02F0F8FA13BD00007D
:103E50001CB539208DF80000DFF8B8442068002830
:103E60000CD0002300226946206802F043FD01289F
:103E700008D0DFF85C0C02F0E1FA03E0DFF8540C44
:103E800002F0DCFA13BD000058590260905902603C
:103E900030B5DBB00B218DF80010841C200002F03F
:103EA00019F98DF80300A41C200002F013F9ADF8F5
:103EB0000100A21C002039E00C2113786C4601FBA4
:103EC00000F52C442371521C13786C4601FB00F55D
:103ED0002C446371521C13786C4601FB00F52C4492
:103EE000A371521C13786C4601FB00F52C44E3715E
:103EF000521C13786C4601FB00F52C442372521CB3
:103F000013786C4601FB00F52C446372521C137845
:103F10006C4601FB00F52C44A372521C13786C46CE
:103F200001FB00F12144CB72521C401CBDF8011072
:103F30008842C1DB002300226946DFF8D80300680D
:103F400002F0D8FC012803D0DFF8B00D02F076FAB9
:103F50005BB030BD1CB54C218DF800108DF8010010
:103F6000DFF8B043206800280CD000230022694607
:103F7000206802F0BFFC012808D0DFF85C0B02F0DB
:103F80005DFA03E0DFF8780D02F058FA13BD000087
:103F9000E03D0260444A0260AE2070471CB5BC2080
:103FA0008DF80000DFF86C43206800280CD0002357
:103FB00000226946206802F09DFC012808D0DFF845
:103FC000440D02F03BFA03E0DFF83C0D02F036FA54
:103FD00013BD0000C85902601CB5BE208DF800005A
:103FE000CC4C206800280CD00023002269462068B1
:103FF00002F080FC012808D0DFF8100D02F01EFA54
:1040000003E0DFF80C0D02F019FA13BD005A02604C
:10401000C06D02601CB5CC208DF80000BD4C20683E
:1040200000280CD0002300226946206802F062FCC0
:10403000012808D0DFF8DC0C02F000FA03E0DFF81A
:10404000D80C02F0FBF913BD203E02601CB5CE2057
:104050008DF80000AF4C206800280CD0002300220F
:104060006946206802F046FC012808D0DFF8AC0C55
:1040700002F0E4F903E0DFF8AC0D02F0DFF913BD64
:104080001CB5A1208DF80000A24C206800280CD09F
:10409000002300226946206802F02CFC012808D089
:1040A000DFF8840D02F0CAF903E0DFF8800D02F0BA
:1040B000C5F913BD1CB5B8208DF80000954C2068DB
:1040C00000280CD0002300226946206802F012FC70
:1040D000012808D0DFF8580D02F0B0F903E0DFF84E
:1040E000C80D02F0ABF913BD385A02601CB54B2164
:1040F0008DF8001001F0F5FF0DF101010860854C0D
:10410000206800280CD0002300226946206802F0B5
:10411000F1FB012808D0DFF81C0D02F08FF903E055
:10412000DFF8880D02F08AF913BD1CB519218DF84E
:104130000010441C200001F0CDFFADF80100A01CD0
:1041400001F0DEFF0DF103010860724C20680028C9
:104150000BD0002300226946206802F0CBFB012827
:1041600006D0774802F06AF902E0764802F066F974
:1041700013BD1CB5FD208DF80000DFF8344D20681C
:1041800000280CD0002300226946206802F0B2FB10
:10419000012808D0DFF81C0D02F050F903E0DFF829
:1041A000880D02F04BF913BD5885026088850260C6
:1041B0001CB5FD208DF80000564C206800280BD05F
:1041C000002300226946206802F094FB012806D0F3
:1041D0005B4802F033F902E05A4802F02FF913BDB0
:1041E0001CB547218DF80010401C01788DF8011096
:1041F000001D01F085FF0DF102010860454C2068AB
:1042000000280CD0002300226946206802F072FBCF
:10421000012808D0DFF8140D02F010F903E0DFF8F0
:10422000BC0D02F00BF913BDB88502601CB54A2124
:104230008DF80010401C00788DF80100354C206886
:1042400000280CD0002300226946206802F052FBAF
:10425000012808D0DFF8D40C02F0F0F803E0DFF812
:104260007C0D02F0EBF813BDF0B585B0050006211A
:1042700002A802F012F8DFF8684D206800280DD07F
:1042800000235FF0FF3202A9206802F033FB01280F
:1042900008D0DFF8500D02F0D1F803E0DFF8480D48
:1042A00002F0CCF800266F460020B855761C28781E
:1042B000B855761C0121681C01F02EFFB855761CFC
:1042C0000021681C01F028FFB855761C0121E81C6C
:1042D00001F022FFB855761C0021E81C01F01CFFFC
:1042E000B855761C206800280DD000235FF0FF32FF
:1042F0006946206802F0FEFA012808D0DFF8E40CD5
:1043000002F09CF803E0DFF8600D02F097F805B0CA
:10431000F0BD0000545B2220F46D0260705A026010
:10432000286E0260A85A02605C6E0260E05A026069
:10433000906E0260804A0260185B0260603E02601C
:10434000C46E0260BC4A0260F86E0260505B02609C
:104350002C6F0260F8B58CB00500DFF8844C0422A5
:104360005A212068FEF742F9002840F01D812421DF
:10437000684601F092FF206800280DD000235FF00E
:10438000FF326946206802F0B5FA012808D0DFF84C
:10439000DC0C02F053F803E0DFF8D40C02F04EF826
:1043A00000260420287003AF2878B855761C012118
:1043B000A81C01F0B1FEB855761C0021A81C01F024
:1043C000ABFEB855761C0321281D01F0BAFEB85586
:1043D000761C0221281D01F0B4FEB855761C01217F
:1043E000281D01F0AEFEB855761C0021281D01F0F5
:1043F000A8FEB855761C032115F10C0001F0A1FEB2
:10440000B855761C022115F10C0001F09AFEB85542
:10441000761C012115F10C0001F093FEB855761CB5
:10442000002115F10C0001F08CFEB855761C03211B
:1044300015F1080001F085FEB855761C022115F132
:10444000080001F07EFEB855761C012115F1080028
:1044500001F077FEB855761C002115F1080001F037
:1044600070FEB855761C032115F1100001F069FEAD
:10447000B855761C022115F1100001F062FEB85506
:10448000761C012115F1100001F05BFEB855761C79
:10449000002115F1100001F054FEB855761C0321DF
:1044A00015F1140001F04DFEB855761C022115F1EE
:1044B000140001F046FEB855761C012115F11400D8
:1044C00001F03FFEB855761C002115F1140001F0F3
:1044D00038FEB855761C032115F1180001F031FEA5
:1044E000B855761C022115F1180001F02AFEB855C6
:1044F000761C012115F1180001F023FEB855761C39
:10450000002115F1180001F01CFEB855761C03219E
:1045100015F11C0001F015FEB855761C022115F1AD
:104520001C0001F00EFEB855761C012115F11C008F
:1045300001F007FEB855761C002115F11C0001F0B2
:1045400000FEB855761C012115F1200001F0E4FDB4
:10455000B855761C002115F1200001F0DDFDB8559D
:10456000761C012115F1220001F0D6FDB855761C0C
:10457000002115F1220001F0CFFDB855761C20680E
:1045800000280DD000235FF0FF3203A9206802F05D
:10459000B1F9012808D0DFF8C00C01F04FFF03E0AB
:1045A000DFF8B80C01F04AFF0DB0F0BDF84A026028
:1045B00070970260606F0260E8850260885B02604D
:1045C00018860260C05B026048860260946F0260D9
:1045D000C86F0260FC6F0260344B02609C970260FF
:1045E0003070026078860260F85B0260F8B592B0C5
:1045F00005003C21684601F050FEDFF8E4492068E0
:1046000000280DD000235FF0FF326946206802F0D9
:1046100071F9012808D0DFF8480C01F00FFF03E022
:10462000DFF8400C01F00AFF002703AE2878F055B0
:104630007F1C0121A81C01F06FFDF0557F1C032198
:10464000281D01F07EFDF0557F1C0221281D01F080
:1046500078FDF0557F1C0121281D01F072FDF055F9
:104660007F1C0021281D01F06CFDF0557F1C0321EB
:1046700015F1080001F065FDF0557F1C022115F1D0
:10468000080001F05EFDF0557F1C012115F10800C6
:1046900001F057FDF0557F1C002115F1080001F0D5
:1046A00050FDF0557F1C032115F10C0001F049FD70
:1046B000F0557F1C022115F10C0001F042FDF05570
:1046C0007F1C012115F10C0001F03BFDF0557F1C12
:1046D000002115F10C0001F034FDF0557F1C032181
:1046E00015F1100001F02DFDF0557F1C022115F190
:1046F000100001F026FDF0557F1C012115F110007E
:1047000001F01FFDF0557F1C002115F1100001F094
:1047100018FDF0557F1C012115F1140001F0FCFC7F
:10472000F0557F1C002115F1140001F0F5FCF05547
:104730007F1C012115F1160001F0EEFCF0557F1CE5
:10474000002115F1160001F0E7FCF0557F1C012156
:1047500015F1180001F0E0FCF0557F1C002115F167
:10476000180001F0D9FCF0557F1C012115F11A0049
:1047700001F0D2FCF0557F1C002115F11A0001F068
:10478000CBFCF0557F1C012115F11C0001F0C4FC8D
:10479000F0557F1C002115F11C0001F0BDFCF05507
:1047A0007F1C012115F11E0001F0B6FCF0557F1CA5
:1047B000002115F11E0001F0AFFCF0557F1C012116
:1047C00015F1200001F0A8FCF0557F1C002115F127
:1047D000200001F0A1FCF0557F1C012115F12C00F7
:1047E00001F09AFCF0557F1C002115F12C0001F01E
:1047F00093FCF0557F1C012115F12E0001F08CFC7B
:10480000F0557F1C002115F12E0001F085FCF055BC
:104810007F1C032115F1280001F093FCF0557F1C4B
:10482000022115F1280001F08CFCF0557F1C0121BC
:1048300015F1280001F085FCF0557F1C002115F1D1
:10484000280001F07EFCF0557F1C032115F1340097
:1048500001F077FCF0557F1C022115F1340001F0C6
:1048600070FCF0557F1C012115F1340001F069FC4A
:10487000F0557F1C002115F1340001F062FCF05569
:104880007F1C032115F1300001F05BFCF0557F1C0B
:10489000022115F1300001F054FCF0557F1C01217C
:1048A00015F1300001F04DFCF0557F1C002115F191
:1048B000300001F046FCF0557F1C95F82200F055C1
:1048C0007F1C95F82400F0557F1C95F82500F055C5
:1048D0007F1C95F83A00F0557F1C95F83B00F05589
:1048E0007F1C206800280DD000235FF0FF3203A951
:1048F000206801F0FFFF012808D0DFF86C0901F003
:104900009DFD03E0DFF8640901F098FD13B0F0BDF0
:10491000C897026064700260F8B586B004000C218C
:1049200003A801F0BAFCDFF8B856286800280DD0BB
:1049300000235FF0FF3203A9286801F0DBFF0128A4
:1049400008D0DFF82C0901F079FD03E0DFF8240935
:1049500001F074FD00266F460021601C01F0DCFBB5
:10496000B855761C0121601C01F0D6FBB855761CA9
:104970000021E01C01F0D0FBB855761C0121201D60
:1049800001F0CAFBB855761C002114F10A0001F0B1
:10499000C3FBB855761C012114F10B0001F0BCFBE0
:1049A000B855761C0021601D01F0B6FBB855761C89
:1049B0000020B855761C0021A01D01F0C2FBB8559F
:1049C000761C0121A01D01F0BCFBB855761C02210C
:1049D000A01D01F0B6FBB855761C0321A01D01F007
:1049E000B0FBB855761C286800280DD000235FF076
:1049F000FF326946286801F07DFF012808D0DFF802
:104A0000780801F01BFD03E0DFF8700801F016FDE7
:104A100007B0F0BD38B586B00500092103A801F044
:104A20003CFCDFF8BC45206800280CD000230022A5
:104A300003A9206801F05EFF012808D0DFF84008D4
:104A400001F0FCFC03E0DFF83C0801F0F7FC00207B
:104A500069462A780A54401C6A780A54401CAA788D
:104A60000A54401CEA780A54401C2A790A54401C13
:104A70006A790A54401CAA790A54401CEA790A54FB
:104A8000401C00220A54401C206800280CD000233F
:104A900000226946206801F02DFF012808D0DFF8C8
:104AA000E80701F0CBFC03E0DFF8140E01F0C6FCD0
:104AB00007B030BDF4970260A8860260305C0260E7
:104AC00098700260685C0260A05C0260A03E0260B8
:104AD000D85C0260E03E026008870260F8B58CB0E6
:104AE00005002221684601F0D8FBDFF8F444206875
:104AF00000280CD0002300226946206801F0FAFE4D
:104B0000012808D0DFF8840701F098FC03E0DFF803
:104B1000800701F093FC002603AF0C20B855761CEB
:104B20006878B855761CA878B855761CE878B855DA
:104B3000761C0121281D01F0EFFAB855761C0021E2
:104B4000281D01F0E9FAB855761C0121A81D01F0D5
:104B5000E3FAB855761C0021A81D01F0DDFAB8551E
:104B6000761C012115F1080001F0D6FAB855761C23
:104B7000002115F1080001F0CFFAB855761C01218B
:104B800015F10A0001F0C8FAB855761C002115F19C
:104B90000A0001F0C1FAB855761C012115F10C008C
:104BA00001F0BAFAB855761C002115F10C0001F09D
:104BB000B3FAB855761C012115F10E0001F0ACFADC
:104BC000B855761C002115F10E0001F0A5FAB85574
:104BD000761C012115F1100001F09EFAB855761CE3
:104BE000002115F1100001F097FAB855761C01214B
:104BF00015F1120001F090FAB855761C002115F15C
:104C0000120001F089FAB855761C012115F1140043
:104C100001F082FAB855761C002115F1140001F05C
:104C20007BFAB855761C012115F1160001F074FAD3
:104C3000B855761C002115F1160001F06DFAB85533
:104C4000761C012115F1180001F066FAB855761CA2
:104C5000002115F1180001F05FFAB855761C01210A
:104C600015F11A0001F058FAB855761C002115F11B
:104C70001A0001F051FAB855761C012115F11C00FB
:104C800001F04AFAB855761C002115F11C0001F01C
:104C900043FAB855761C012115F11E0001F03CFACB
:104CA000B855761C002115F11E0001F035FAB855F3
:104CB000761C012115F1200001F02EFAB855761C62
:104CC000002115F1200001F027FAB855761C206864
:104CD00000280CD00023002203A9206801F00AFE5E
:104CE000012808D0DFF8A40501F0A8FB03E0DFF8F5
:104CF000D80D01F0A3FB0DB0F0BD0000D886026016
:104D0000105D0260CC700260704B02600071026046
:104D1000AC4B026034710260E84B02606871026063
:104D20002DE9F84394B0050040F2431101A801F0C9
:104D3000B4FAAB4C206800280CD00023002201A953
:104D4000206801F0D7FD012808D0DFF8500D01F0F0
:104D500075FB03E0DFF8740D01F070FB00260F20F7
:104D60008DF8100004AF68787870A878B8705FF09C
:104D700003085FF0000922E0DFF8540D01F05EFB4C
:104D80001BE005EB0600C07807F80800761C18F158
:104D90000108B8F1400FF4DB5FF00008206800283C
:104DA000EAD00023002204A9206801F0A3FD012815
:104DB00003D0DFF8E80C01F041FB19F10109B9F16A
:104DC000050FE6DBB6F5A07F28D2D6F5A070032844
:104DD00020D1002006E005EB0601C9786A4611548F
:104DE000761C401CB6F5A07FF5D3206800280CD0B7
:104DF000002300226946206801F07CFD01280DD0C7
:104E0000DFF8980C01F01AFB08E0DFF8C40C01F0A1
:104E100015FB03E0DFF8BC0D01F010FB15B0BDE899
:104E2000F0830000485D0260244C0260C4300260E0
:104E3000805D02609C71026038B584B0040003217B
:104E400001A801F02AFA664D286800280CD000233A
:104E5000002201A9286801F04DFD012808D0DFF8E3
:104E6000780D01F0EBFA03E0DFF8700D01F0E6FADF
:104E7000684612214170A1784170286800280CD042
:104E8000002300226946286801F034FD012808D07B
:104E9000DFF8440D01F0D2FA03E0DFF8B00D01F0C5
:104EA000CDFA05B030BD0000604C0260B85D026014
:104EB000505B2220D071026018B593B00121684682
:104EC00001F0EBF9464C206800280CD000230022AA
:104ED0006946206801F00EFD012808D0DFF8700D4A
:104EE00001F0ACFA03E0DFF86C0D01F0A7FA142032
:104EF0008DF80C0001208DF80D00206800280CD0E2
:104F00000023002203A9206801F0F4FC012808D046
:104F1000DFF83C0D01F092FA03E0DFF8F00D01F04C
:104F20008DFA14B010BD00009C4C026038870260FE
:104F300038B586B005000B2103A801F0AEF9284C66
:104F4000206800280CD00023002203A9206801F06B
:104F5000D1FC012808D0DFF8400D01F06FFA03E022
:104F6000DFF8380D01F06AFA002168462022425429
:104F7000491C6A784254491CAA784254491CEA7870
:104F80004254491C2A794254491C6A794254491CAA
:104F9000AA794254491CEA794254491C2A7A42545B
:104FA000491C6A7A4254491CAA7A4254491C206816
:104FB00000280CD0002300226946206801F09AFCEA
:104FC000012808D0DFF8D00C01F038FA03E0DFF850
:104FD0003C0D01F033FA07B030BD0000F05D026017
:104FE000405B2220688702609887026038B586B0EF
:104FF0000500032103A801F050F9DFF84C4D2068AB
:1050000000280CD00023002203A9206801F072FCC4
:10501000012808D0DFF8700D01F010FA03E0DFF886
:105020006C0D01F00BFA0020694622220A54401C44
:105030006A780A54401CAA780A54401C2068002848
:105040000CD0002300226946206801F053FC01289F
:1050500008D0DFF8340D01F0F1F903E0DFF8C00DFE
:1050600001F0ECF907B030BDC8870260F887026034
:105070002888026038B586B00500112103A801F028
:105080000CF9DFF8C44C206800280CD00023002263
:1050900003A9206801F02EFC012808D0DFF8840D58
:1050A00001F0CCF903E0DFF8800D01F0C7F9002131
:1050B000684623224254491C6A784254491CAA7803
:1050C0004254491CEA784254491C2A794254491CEA
:1050D0006A794254491CAA794254491CEA794254DB
:1050E000491C2A7A4254491C6A7A4254491CAA7AB9
:1050F0004254491CEA7A4254491C2A7B4254491CB6
:105100006A7B4254491CAA7B4254491CEA7B4254A4
:10511000491C2A7C4254491C206800280CD00023DA
:1051200000226946206801F0E5FB012808D0DFF87D
:10513000F40C01F083F903E0DFF8E40C01F07EF9F0
:1051400007B030BDF0B585B00400052102A801F01C
:10515000A4F8DFF8F45B286800280CD000230022B4
:1051600002A9286801F0C6FB012808D0DFF8440D29
:1051700001F064F903E0DFF8700D01F05FF900263B
:105180006F462520B855761C0321601C00F0D9FF1E
:10519000B855761C0221601C00F0D3FFB855761C70
:1051A0000121601C00F0CDFFB855761C0021601C69
:1051B00000F0C7FFB855761C286800280CD00023E3
:1051C00000226946286801F095FB012808D0DFF825
:1051D000E40C01F033F903E0DFF8400D01F02EF9A3
:1051E00005B0F0BD38B584B00500012101A801F07B
:1051F00054F8DFF8544B206800280CD0002300221C
:1052000001A9206801F076FB012808D0DFF8100D15
:1052100001F014F903E0DFF80C0D01F00FF90020A4
:1052200017208DF800008DF80150206800280CD060
:10523000002300226946206801F05CFB012808D0A9
:10524000DFF8DC0C01F0FAF803E0DFF8DC0C01F029
:10525000F5F805B030BD000058880260888802600B
:10526000B8880260E8880260188902604889026094
:105270000472026078890260387202606C720260A7
:10528000A0720260D472026008730260285E02603D
:1052900070730260F0B593B005006421684600F0B9
:1052A000FCFFDFF8A44A206800280CD0002300226D
:1052B0006946206801F01EFB012808D0DFF86C0C5D
:1052C00001F0BCF803E0DFF8680C01F0B7F8002645
:1052D00003AF2720B855761C0321280000F031FFCA
:1052E000B855761C0221280000F02BFFB855761C1B
:1052F0000121280000F025FFB855761C0021280068
:1053000000F01FFFB855761C0321281D00F019FF7F
:10531000B855761C0221281D00F013FFB855761CE5
:105320000121281D00F00DFFB855761C0021281D15
:1053300000F007FFB855761C032115F1080000F0B6
:1053400000FFB855761C022115F1080000F0F9FEA7
:10535000B855761C012115F1080000F0F2FEB85591
:10536000761C002115F1080000F0EBFEB855761C04
:10537000032115F10C0000F0E4FEB855761C022163
:1053800015F10C0000F0DDFEB855761C012115F179
:105390000C0000F0D6FEB855761C002115F10C006B
:1053A00000F0CFFEB855761C032115F1100000F077
:1053B000C8FEB855761C022115F1100000F0C1FEA0
:1053C000B855761C012115F1100000F0BAFEB85551
:1053D000761C002115F1100000F0B3FEB855761CC4
:1053E000032115F1140000F0ACFEB855761C022123
:1053F00015F1140000F0A5FEB855761C012115F139
:10540000140000F09EFEB855761C002115F1140022
:1054100000F097FEB855761C032115F1180000F036
:1054200090FEB855761C022115F1180000F089FE97
:10543000B855761C012115F1180000F082FEB85510
:10544000761C002115F1180000F07BFEB855761C83
:10545000032115F11C0000F074FEB855761C0221E2
:1054600015F11C0000F06DFEB855761C012115F1F8
:105470001C0000F066FEB855761C002115F11C00DA
:1054800000F05FFEB855761C032115F1200000F0F6
:1054900058FEB855761C022115F1200000F051FE8F
:1054A000B855761C012115F1200000F04AFEB855D0
:1054B000761C002115F1200000F043FEB855761C43
:1054C000032115F1240000F03CFEB855761C0221A2
:1054D00015F1240000F035FEB855761C012115F1B8
:1054E000240000F02EFEB855761C002115F1240092
:1054F00000F027FEB855761C032115F1280000F0B6
:1055000020FEB855761C022115F1280000F019FE86
:10551000B855761C012115F1280000F012FEB8558F
:10552000761C002115F1280000F00BFEB855761C02
:10553000032115F12C0000F004FEB855761C022161
:1055400015F12C0000F0FDFDB855761C012115F178
:105550002C0000F0F6FDB855761C002115F12C004A
:1055600000F0EFFDB855761C032115F1300000F076
:10557000E8FDB855761C022115F1300000F0E1FD80
:10558000B855761C012115F1300000F0DAFDB85550
:10559000761C002115F1300000F0D3FDB855761CC3
:1055A000032115F1340000F0CCFDB855761C022122
:1055B00015F1340000F0C5FDB855761C012115F138
:1055C000340000F0BEFDB855761C002115F1340002
:1055D00000F0B7FDB855761C032115F1380000F036
:1055E000B0FDB855761C022115F1380000F0A9FD78
:1055F000B855761C012115F1380000F0A2FDB85510
:10560000761C002115F1380000F09BFDB855761C82
:10561000032115F13C0000F094FDB855761C0221E1
:1056200015F13C0000F08DFDB855761C012115F1F7
:105630003C0000F086FDB855761C002115F13C00B9
:1056400000F07FFDB855761C206800280CD00023A0
:10565000002203A9206801F04DF9012808D0DFF8E5
:10566000CC0800F0EBFE03E0DFF81C0B00F0E6FED8
:105670000026032115F1400000F063FDB855761CAB
:10568000022115F1400000F05CFDB855761C0121A7
:1056900015F1400000F055FDB855761C002115F1BC
:1056A000400000F04EFDB855761C032115F1440072
:1056B00000F047FDB855761C022115F1440000F0BA
:1056C00040FDB855761C012115F1440000F039FD6C
:1056D000B855761C002115F1440000F032FDB85594
:1056E000761C032115F1480000F02BFDB855761CFF
:1056F000022115F1480000F024FDB855761C012167
:1057000015F1480000F01DFDB855761C002115F17B
:10571000480000F016FDB855761C032115F14C0029
:1057200000F00FFDB855761C022115F14C0000F079
:1057300008FDB855761C012115F14C0000F001FD63
:10574000B855761C002115F14C0000F0FAFCB85554
:10575000761C032115F1500000F0F3FCB855761CBF
:10576000022115F1500000F0ECFCB855761C012127
:1057700015F1500000F0E5FCB855761C002115F13C
:10578000500000F0DEFCB855761C032115F15400E2
:1057900000F0D7FCB855761C022115F1540000F03A
:1057A000D0FCB855761C012115F1540000F0C9FC5D
:1057B000B855761C002115F1540000F0C2FCB85514
:1057C000761C032115F1580000F0BBFCB855761C7F
:1057D000022115F1580000F0B4FCB855761C0121E7
:1057E00015F1580000F0ADFCB855761C002115F1FC
:1057F000580000F0A6FCB855761C032115F15C009A
:1058000000F09FFCB855761C022115F15C0000F0F9
:1058100098FCB855761C012115F15C0000F091FC54
:10582000B855761C002115F15C0000F08AFCB855D3
:10583000761C032115F1600000F083FCB855761C3E
:10584000022115F1600000F07CFCB855761C0121A6
:1058500015F1600000F075FCB855761C002115F1BB
:10586000600000F06EFCB855761C206800280CD053
:105870000023002203A9206801F03CF8012808D089
:10588000DFF8A80600F0DAFD03E0DFF8FC0800F01E
:10589000D5FD206800280CD00023002203A9206831
:1058A00001F028F8012808D0DFF8800600F0C6FDD6
:1058B00003E0DFF8D40800F0C1FD13B0F0BD000034
:1058C0003C73026080B504208DF8000000230022A4
:1058D0006946DFF8B808006801F00CF8012803D029
:1058E000DFF8AC0800F0AAFD01BD80B500208DF8FE
:1058F0000000002300226946DFF89008006800F0ED
:10590000F9FF012803D0DFF88C0800F097FD01BDF6
:1059100080B502208DF80000002300226946DFF8E0
:105920006C08006800F0E6FF012803D0DFF8680883
:1059300000F084FD01BD80B507218DF800108DF8C1
:105940000100002300226946DFF84008006800F0EB
:10595000D1FF012803D0DFF8440800F06FFD01BD3E
:1059600038B5DFF83C4801212170451C280000F0C3
:10597000B1FB60802D1D280000F0C2FB60602D1D72
:10598000280000F0BDFBA0602D1D280000F0B8FB32
:10599000E0602D1D280000F0B3FB20612D1D2800C4
:1059A00000F0AEFBA082AD1C280000F093FBE0826B
:1059B000AD1C280000F08EFB2083AD1C280000F0F9
:1059C00089FB6083AD1C280000F084FBA083AD1C24
:1059D000280000F07FFBE083AD1C280000F07AFB7C
:1059E0002084A81C017884F82210051D280000F0EE
:1059F00087FBA0622D1D280000F06CFBA085AD1C6C
:105A0000280000F07DFB20632D1D280000F062FBC4
:105A1000E085AD1C280000F073FB84F82400281DED
:105A2000017884F82510451C280000F069FB6063AC
:105A3000281D017884F83A10851C94F83A10DFF894
:105A4000640700F0FBFC681C2878002801D00120C6
:105A500000E0002084F83B00002300222100DFF852
:105A60002C07006800F046FF012803D0DFF8380754
:105A700000F0E4FC31BD80B518208DF80000002353
:105A800000226946DFF80407006800F033FF0128B0
:105A900003D0DFF8180700F0D1FC01BDA473026049
:105AA00080B505208DF80000002300226946DFF84C
:105AB000DC06006800F01EFF012803D0DFF8F006C6
:105AC00000F0BCFC01BD0000605E0260D8730260A3
:105AD0000C74026080B506208DF8000000230022BF
:105AE0006946DFF8A806006800F004FF012803D02B
:105AF000DFF8C00600F0A2FC01BD80B508208DF8DB
:105B00000000002300226946DFF88006006800F0EC
:105B1000F1FE012803D0DFF8A00600F08FFC01BDE4
:105B200080B503208DF80000002300226946DFF8CD
:105B30005C06006800F0DEFE012803D0DFF87C067A
:105B400000F07CFC01BD80B509218DF800108DF8B6
:105B50000100002300226946DFF83006006800F0EB
:105B6000C9FE012803D0DFF8580600F067FC01BD2C
:105B700080B50B208DF80000002300226946DFF875
:105B80000C06006800F0B6FE012803D0DFF83406EA
:105B900000F054FC01BD1CB50D218DF80010401C17
:105BA00000F0AEFA0190DFF8E445206800280CD040
:105BB000002300226946206800F09CFE012808D0DE
:105BC000DFF8040600F03AFC03E0DFF8000600F01E
:105BD00035FC13BD985E0260D05E0260085F026013
:105BE0001CB510208DF80000DFF8A04520680028C3
:105BF0000CD0002300226946206800F07BFE0128BB
:105C000008D0DFF8CC0500F019FC03E0DFF8C4058C
:105C100000F014FC13BD1CB513208DF80000DFF854
:105C20006C45206800280CD00023002269462068BB
:105C300000F060FE012808D0DFF89C0500F0FEFBB4
:105C400003E0DFF8980500F0F9FB13BD405F026048
:105C5000D84C0260144D02601CB50E228DF8002055
:105C60008DF801008DF80210DFF82045206800282B
:105C70000CD0002300226946206800F03BFE01287A
:105C800008D0DFF85C0500F0D9FB03E0DFF854052D
:105C900000F0D4FB13BD0000407402607474026015
:105CA0001FB511218DF8001001788DF80110401CEE
:105CB00001788DF80210401C01788DF80310441C07
:105CC000200000F01DFA0190241D200000F018FAB9
:105CD0000390241D200000F013FA0290201DDFF82D
:105CE000AC44206800280CD00023002269462068BC
:105CF00000F000FE012808D0DFF8EC0400F09EFB65
:105D000003E0DFF8E80400F099FB1FBD504D02608E
:105D10001CB57E208DF80000DFF870442068002854
:105D20000CD0002300226946206800F0E3FD012822
:105D300008D0DFF8BC0400F081FB03E0DFF8B40416
:105D400000F07CFB13BD0000405B22201CB51E212F
:105D50008DF8001000788DF80100DFF830442068DD
:105D600000280CD0002300226946206800F0C2FD04
:105D7000012808D0DFF8800400F060FB03E0DFF8C2
:105D80007C0400F05BFB13BDA8740260DC7402604D
:105D90001FB51F218DF80010002105E002786B4629
:105DA0000B445A70401C491C0A29F7DBDFF8DC431E
:105DB000206800280CD0002300226946206800F0EB
:105DC00099FD012808D0DFF8380400F037FB03E024
:105DD000DFF8300400F032FB1FBD1CB521218DF827
:105DE000001001788DF80110401C00788DF8020039
:105DF000DFF89843206800280CD000230022694671
:105E0000206800F077FD012808D0DFF8FC0300F0DF
:105E100015FB03E0DFF8F40300F010FB13BD0000F6
:105E20001075026044750260A889026018B585B0DB
:105E300023218DF80010002105E002786B460B4409
:105E40005A70401C491C1029F7DBD04C20680028F0
:105E50000CD0002300226946206800F04BFD012889
:105E600008D0DFF8AC0300F0E9FA03E0DFF8A403A0
:105E700000F0E4FA06B010BD1CB524218DF8001026
:105E800000F02FF90DF101010860C04C20680028D6
:105E90000BD0002300226946206800F02BFD01286A
:105EA00006D0DD4800F0CAFA02E0DC4800F0C6FA8D
:105EB00013BD0000D88902601CB519208DF80000C0
:105EC000B24C206800280BD00023002269462068CD
:105ED00000F010FD012806D0D14800F0AFFA02E032
:105EE000D04800F0ABFA13BD088A02601CB516203A
:105EF0008DF80000A54C206800280BD0002300225C
:105F00006946206800F0F6FC012806D0C64800F07B
:105F100095FA02E0C34800F091FA13BD388A026096
:105F2000203F02608C4D0260603F0260785F02603B
:105F30007875026010B59AB0040026208DF8000034
:105F4000200000F0CEF80DF103010860241D2000B0
:105F500000F0C7F80DF107010860241D200000F0D3
:105F6000C0F80DF10B010860241D200000F0B9F805
:105F70000DF10F010860241D200000F0B2F80DF1B2
:105F800013010860241D200000F0ABF80DF117018B
:105F90000860241D200000F0A4F80DF11B0108602A
:105FA000241D200000F09DF80DF11F010860241D44
:105FB000200000F096F80DF123010860241D200058
:105FC00000F08FF80DF127010860241D200000F07B
:105FD00088F80DF12B010860241D200000F081F8E5
:105FE0000DF12F010860241D200000F07AF80DF15A
:105FF00033010860241D200000F073F80DF1370113
:106000000860241D200000F06CF80DF13B010860D1
:10601000241D200000F065F80DF13F010860241DEB
:10602000200000F05EF80DF143010860241D2000FF
:1060300000F057F80DF147010860241D200000F022
:1060400050F80DF14B010860241D200000F049F8C4
:106050000DF14F010860241D200000F042F80DF101
:1060600053010860241D200000F03BF80DF157019A
:106070000860241D200000F034F80DF15B01086079
:10608000241D200000F02DF80DF15F010860201D97
:1060900000F027F80DF1630108603C4C20680028EF
:1060A0000BD0002300226946206800F023FC012861
:1060B00006D05E4800F0C2F902E05D4800F0BEF98B
:1060C0001AB010BD01000878491C00020978084385
:1060D00080B270470100487800020978084380B216
:1060E0007047010008784A1C000211780843521CCE
:1060F000000211780843511C0002097808437047D8
:106100000100C87800028A78104300024A781043E0
:10611000000209780843704710B500240A00D2B283
:10612000002A01D1048809E0C9B2012903D10488F9
:10613000A4B2240A02E03F4800F080F92000C0B277
:1061400010BD10B500240A00D2B2002A01D10468A3
:1061500016E00A00D2B2012A02D10468240A0FE034
:106160000A00D2B2022A02D10468240C08E0C9B2A3
:10617000032902D10468240E02E02F4800F05EF9E2
:106180002000C0B210BD0000B05F0260505B222052
:10619000688A0260988A0260C88A0260F88A02608F
:1061A000845B2220A03F0260AC750260288B0260F5
:1061B00020980260588B02604C98026078980260C8
:1061C000888B0260E85F0260E07502602060026018
:1061D00058600260C84D026090600260044E026028
:1061E00014760260C860026000610260404E026086
:1061F000B88B02604876026038610260E03F02605E
:106200007C4E0260B84E0260F44E026008310260BB
:10621000304F0260204002607C7602606C4F02606A
:10622000E88B0260B076026070610260188C0260D8
:10623000E4760260C8A10260F0A1026002B469467F
:10624000002828D046220270401C46220270401CC2
:1062500000220270401C24220270401C00220270A6
:10626000401C00220270401C00220270401C2422AC
:106270000270401CBDF80020B2F5807F05DB4A7833
:106280000270401C0978017005E000210170401C7B
:10629000BDF80010017001B0704702B469460028D3
:1062A00028D000220270401C00220270401C0022F4
:1062B0000270401C09220270401C46220270401CE1
:1062C00046220270401C00220270401C062202700E
:1062D000401CBDF80020B2F5807F05DB4A780270D3
:1062E000401C0978017005E000210170401CBDF8D8
:1062F0000010017001B0704710B50C000028FDD0EF
:10630000002C01D1002010E05E490968002901D16C
:1063100000200AE022000100594802F092F900B280
:10632000002801D05FF0FF34200010BD2DE9F041BE
:1063300004000D0016001F0000205FF0000810E0B0
:106340002868401C802805D329682000FFF7D4FF67
:1063500000202860286826542868401C286018F10E
:106360000108B845ECDBBDE8F0812DE9F04188B0CB
:1063700006000F0015009846002468464249102286
:1063800002F074F9CDF8008001978DF80E608DF859
:10639000185048F64170ADF81A002800C0B2012824
:1063A00002D16846079015E02800C0B2022802D149
:1063B00043F221540EE02800C0B2032802D143F278
:1063C000215407E0EDB2042D02D143F2215401E043
:1063D00043F22154200043F2215100B2884228D0D8
:1063E00020210022294D2C00200002F083F9281DD5
:1063F000286004A9286802F0CEF8010009B200293B
:10640000FBD11E48007815F11801286802F0E1F868
:10641000010009B20029FBD115F11C01286802F026
:10642000EFF80400200000B20028FBD128681549CD
:10643000086024B2200008B0BDE8F0810EB478B541
:10644000A0B0040000200025802100226E4630000C
:1064500002F050F90B48006800280AD025A90C4B1F
:106460006A46200002F0A4FC01006846FFF744FFE2
:106470000500280021B070BC5DF810FBC463222029
:106480008C2400204C1D202064C002607424002055
:106490002D630060DFF8E80100687047DFF8E40171
:1064A00000687047DFF8E00100687047DFF8DC0142
:1064B0000068704776480068704714207047754838
:1064C0000068704714207047142070475A207047A6
:1064D00078480068704772480068704773480068E1
:1064E00070477348006870476E4800687047F8B599
:1064F0006A4C00220221142000F03FF9206020683D
:10650000002802D16C48FFF799FF5F4F002240211D
:106510001E2000F032F938605C4C002240211E2021
:1065200000F02BF92060564D002240215A2000F047
:1065300024F92860534E002240215A2000F01DF912
:1065400030603868002800F084802868002800F057
:106550008080206800287CD03068002879D04C4C9E
:1065600000224FF4A271142000F007F92060206887
:10657000002802D15148FFF761FF464C0022042158
:10658000142000F0FAF820602068002802D14C485E
:10659000FFF754FF474C00224FF4B671142000F06F
:1065A000ECF820602068002802D14648FFF746FF3B
:1065B0003B4C00220721322000F0DFF820602068E9
:1065C000002802D14048FFF739FF394C0022412111
:1065D000052000F0D2F820602068002802D13B4856
:1065E000FFF72CFF2F4C00220121142000F0C5F8EA
:1065F00020602068002802D13548FFF71FFF2B4C90
:1066000000224121052000F0B8F820602068002811
:1066100002D13048FFF712FF234C00224FF4A27141
:10662000142000F0AAF820602068002802D12A482F
:10663000FFF704FF184C00224FF4B671142000F04D
:106640009CF820602068002806D12448FFF7F6FE59
:1066500002E02348FFF7F2FEF1BD38B50100002447
:106660000E4D2868002807D000230022286800F07B
:1066700041F9012800D101242000C0B232BD000040
:106680000000002004000020080000200C00002072
:10669000CCBC2120D8BC2120E4BC2120DCBC2120A2
:1066A000D4BC2120E0BC2120E8BC2120ECBC21206E
:1066B000F0BC2120D0BC2120E81D0260B42F026074
:1066C000F82F02603C30026080300260801B026064
:1066D000341E0260801E026030240260203C026092
:1066E000603C026038B504000D00002C09D101F0B7
:1066F000E2FE202080F31188BFF34F8FBFF36F8F2E
:10670000FEE702F090FD2168E26B206C424301EB52
:106710000200A0600020A063206860602168E26B36
:10672000521E206C424301EB0200E0605FF0FF303C
:1067300084F8440084F84500002D12D12069002817
:1067400017D014F1100001F05BFA002811D05FF0AF
:106750008050DFF8101A0860BFF34F8FBFF36F8FC0
:1067600007E014F1100002F0EBFD14F1240002F038
:10677000E7FD02F075FD012032BDF8B504000D0003
:106780001700002C09D101F096FE202080F311881B
:10679000BFF34F8FBFF36F8FFEE705FB04F0002DB3
:1067A00003D0B0FBF5F18C4201D1012100E00021C2
:1067B000C9B2002909D101F07EFE202080F31188A2
:1067C000BFF34F8FBFF36F8FFEE710F15401884284
:1067D00009D301F070FE202080F31188BFF34F8FA2
:1067E000BFF36F8FFEE7543002F0F6FD0600002E77
:1067F00009D0300010F1540200963B00DBB22900B2
:10680000200000F002F83000F2BD38B51C00049DF5
:10681000002901D12D6000E02A60E863296401218C
:106820002800FFF75FFF85F850400020A86431BDC5
:1068300080B500280AD0002181600021016000217C
:10684000C16000230022002100F054F801BD10B502
:10685000020001200021D2B2FFF78FFF04002000C8
:10686000FFF7E6FF200010BD10B50400002C09D191
:1068700001F021FE202080F31188BFF34F8FBFF37A
:106880006F8FFEE701F0D4FAA16881420DD1E06874
:10689000401EE060E068002805D1002300220021AE
:1068A000200000F027F8012000E0002010BD38B5DE
:1068B00004000D00002C09D101F0FDFD202080F323
:1068C0001188BFF34F8FBFF36F8FFEE701F0B0FA6F
:1068D000A168814204D1E068401CE060012008E02A
:1068E0002900200000F0B6FA002802D0E168491C17
:1068F000E16032BDF7B505000E001F000024002D39
:1069000009D101F0D8FD202080F31188BFF34F8F0B
:10691000BFF36F8FFEE7002E02D1286C002801D153
:10692000012000E00020C0B2002809D101F0C3FD21
:10693000202080F31188BFF34F8FBFF36F8FFEE7E6
:10694000022F02D1E86B012801D1012000E00020D4
:10695000C0B2002809D101F0AEFD202080F31188DB
:10696000BFF34F8FBFF36F8FFEE701F069FA002886
:1069700002D10298002801D1012000E00020C0B21D
:1069800000283AD101F097FD202080F31188BFF351
:106990004F8FBFF36F8FFEE70298002873D0002C53
:1069A00003D1684601F072F9012402F059FC00F0AD
:1069B000BEFF02F038FC95F9440010F1010F02D13E
:1069C000002085F8440095F9450010F1010F02D12F
:1069D000002085F8450002F043FC02A9684601F05A
:1069E00061F9002869D1280000F0FDFC00284ED193
:1069F000280000F0A8FC00F0A0FF02F014FCA86B37
:106A0000E96B884201D3022FC6D1AC6B3A0031004A
:106A1000280000F040FCA96C002912D0022F01D1FF
:106A2000002C2CD1280000F060FD002827D05FF05A
:106A30008050DFF830170860BFF34F8FBFF36F8FC0
:106A40001DE0696A00290FD015F1240001F0D8F883
:106A5000002814D05FF08050DFF808170860BFF3FB
:106A60004F8FBFF36F8F0AE0002808D05FF080508F
:106A7000DFF8F0160860BFF34F8FBFF36F8F02F09F
:106A8000EFFB01201FE002F0EBFB00201BE002996E
:106A900015F1100001F06FF8280000F054FC00F030
:106AA0004CFF0028A9D15FF08050DFF8B8160860CD
:106AB000BFF34F8FBFF36F8F9FE7280000F043FCB9
:106AC00000F03BFF0020FEBD2DE9F84F05000F0050
:106AD00014009946002D09D101F0EDFC202080F32F
:106AE0001188BFF34F8FBFF36F8FFEE7002F02D1E6
:106AF000286C002801D1012000E00020C0B200284D
:106B000009D101F0D8FC202080F31188BFF34F8F0A
:106B1000BFF36F8FFEE7B9F1020F02D1E86B0128D6
:106B200001D1012000E00020C0B2002809D101F00D
:106B3000C2FC202080F31188BFF34F8FBFF36F8F0B
:106B4000FEE702F0BBFBEFF311885FF0200A8AF347
:106B50001188BFF34F8FBFF36F8FA86BE96B88422B
:106B600002D3B9F1020F40D195F945B0AE6B4A4658
:106B70003900280000F08FFB58465FF0FF3140B22B
:106B800088421FD1A86C00280ED0B9F1020F01D1A4
:106B9000002E28D1280000F0A8FC002823D0002CCB
:106BA00021D0012020601EE0686A00281BD015F16A
:106BB000240001F025F8002815D0002C13D0012066
:106BC000206010E0584640B27F2808D101F073FCE5
:106BD0008AF31188BFF34F8FBFF36F8FFEE71BF16E
:106BE000010B85F845B0012000E0002088F31188F2
:106BF000BDE8F28FF8B505000C00002D09D101F0B9
:106C00005AFC202080F31188BFF34F8FBFF36F8FA2
:106C1000FEE7286C002809D001F04DFC202080F30D
:106C20001188BFF34F8FBFF36F8FFEE728680028EE
:106C300002D1A868002801D1012000E00020C0B2E4
:106C4000002809D101F037FC202080F31188BFF320
:106C50004F8FBFF36F8FFEE702F030FBEFF311862B
:106C6000202787F31188BFF34F8FBFF36F8FA86B77
:106C7000E96B884236D295F94510401CA86308009C
:106C80005FF0FF3240B290421AD1A86C002809D0C0
:106C9000280000F02AFC002822D0002C20D001205F
:106CA00020601DE0686A00281AD015F1240000F069
:106CB000A7FF002814D0002C12D0012020600FE084
:106CC000080040B27F2808D101F0F5FB87F3118856
:106CD000BFF34F8FBFF36F8FFEE7491C85F8451058
:106CE000012000E0002086F31188F2BDF7B5060010
:106CF0000F000024002E09D101F0DDFB202080F3DD
:106D00001188BFF34F8FBFF36F8FFEE7002F02D1C3
:106D1000306C002801D1012000E00020C0B2002822
:106D200009D101F0C8FB202080F31188BFF34F8FF9
:106D3000BFF36F8FFEE701F083F8002802D10298BD
:106D4000002801D1012000E00020C0B200280ED1AF
:106D500001F0B1FB202080F31188BFF34F8FBFF308
:106D60006F8FFEE7300000F0EEFA00F0E6FD02F073
:106D70005AFAB56B002D41D1029800285AD0002C48
:106D800003D1684600F082FF012402F069FA00F0A6
:106D9000CEFD02F048FA96F9440010F1010F02D13D
:106DA000002086F8440096F9450010F1010F02D149
:106DB000002086F8450002F053FA02A9684600F068
:106DC00071FF00283AD1300000F0FFFA0028C9D046
:106DD000029916F1240000F0CEFE300000F0B3FA64
:106DE00000F0ABFD0028C2D15FF08050DFF87413D3
:106DF0000860BFF34F8FBFF36F8FB8E739003000E3
:106E000000F08CFA6D1EB563306900280ED016F1C3
:106E1000100000F0F5FE002808D05FF08050DFF889
:106E200044130860BFF34F8FBFF36F8F02F018FA5F
:106E300001200EE002F014FA00200AE0300000F019
:106E400082FA00F07AFD300000F0BFFA00288ED000
:106E50000020FEBD73B582B006000024002000258E
:106E6000002E09D101F027FB202080F31188BFF309
:106E70004F8FBFF36F8FFEE7306C002809D001F011
:106E80001AFB202080F31188BFF34F8FBFF36F8F61
:106E9000FEE700F0D5FF002802D10398002801D1B9
:106EA000012000E00020C0B200280ED101F003FB59
:106EB000202080F31188BFF34F8FBFF36F8FFEE761
:106EC000300000F040FA00F038FD02F0ACF9B06B91
:106ED00000284BD10398002865D0002C03D16846C8
:106EE00000F0D4FE012402F0BBF900F020FD02F016
:106EF0009AF996F9440010F1010F02D1002086F8AA
:106F0000440096F9450010F1010F02D1002086F8E7
:106F1000450002F0A5F903A9684600F0C3FE002869
:106F200051D1300000F051FA0028C9D03068002853
:106F300007D102F078F9B06800F092FF050002F086
:106F40008FF9039916F1240000F015FE300000F0CF
:106F5000FAF900F0F2FC0028B7D15FF080508149C7
:106F60000860BFF34F8FBFF36F8FAEE7401EB06373
:106F70003068002802D101F074F8B0603069002850
:106F80000DD016F1100000F03BFE002807D05FF096
:106F9000805074490860BFF34F8FBFF36F8F02F0CA
:106FA0005FF9012028E0002D09D001F084FA2020AB
:106FB00080F31188BFF34F8FBFF36F8FFEE702F0AE
:106FC0004FF9002018E0300000F0BDF900F0B5FCEA
:106FD000300000F0FAF900283FF477AF002D0AD016
:106FE00002F021F9300000F04CF90100B06800F027
:106FF000DFFF02F035F9002004B070BD76B582B035
:1070000005000E000024002D09D101F054FA2020C3
:1070100080F31188BFF34F8FBFF36F8FFEE7002E11
:1070200002D1286C002801D1012000E00020C0B26C
:10703000002809D101F03FFA202080F31188BFF326
:107040004F8FBFF36F8FFEE700F0FAFE002802D1EA
:107050000398002801D1012000E00020C0B20028E0
:107060000ED101F028FA202080F31188BFF34F8F52
:10707000BFF36F8FFEE7280000F065F900F05DFCBC
:1070800002F0D1F8A86B002840D10398002858D00E
:10709000002C03D1684600F0F9FD012402F0E0F86D
:1070A00000F045FC02F0BFF895F9440010F1010F23
:1070B00002D1002085F8440095F9450010F1010F38
:1070C00002D1002085F8450002F0CAF803A96846FD
:1070D00000F0E8FD002838D1280000F076F90028FB
:1070E000C9D0039915F1240000F045FD280000F0F7
:1070F0002AF900F022FC0028C2D15FF08050194923
:107100000860BFF34F8FBFF36F8FB9E7EC683100B2
:10711000280000F003F9EC60686A00280DD015F132
:10712000240000F06DFD002807D05FF080500D496D
:107130000860BFF34F8FBFF36F8F02F091F801200B
:107140000EE002F08DF800200AE0280000F0FBF8C5
:1071500000F0F3FB280000F038F9002890D0002060
:1071600004B070BD04ED00E02DE9F04705000E000D
:107170001400002D09D101F09EF9202080F3118820
:10718000BFF34F8FBFF36F8FFEE7002E02D1286C45
:10719000002801D1012000E00020C0B2002809D160
:1071A00001F089F9202080F31188BFF34F8FBFF3DE
:1071B0006F8FFEE702F082F8EFF311885FF020098D
:1071C00089F31188BFF34F8FBFF36F8FAF6B002F21
:1071D0002ED095F944A03100280000F09FF87F1EC2
:1071E000AF6350465FF0FF3140B288420DD128694D
:1071F00000281BD015F1100000F002FD002815D06A
:10720000002C13D00120206010E0504640B27F28AF
:1072100008D101F050F989F31188BFF34F8FBFF304
:107220006F8FFEE71AF1010A85F844A0012000E003
:10723000002088F31188BDE8F08710B50400002C09
:1072400009D101F038F9202080F31188BFF34F8F66
:10725000BFF36F8FFEE701F0E6FFA46B02F000F8CA
:10726000200010BD80B5002809D101F024F92020AC
:1072700080F31188BFF34F8FBFF36F8FFEE7806BF2
:1072800002BD416A002904D0006B0068D0F10500FE
:1072900000E0002070472DE9F041060015000027AE
:1072A000B46B306C002809D13068002831D1B06847
:1072B00000F021FE07000020B0602AE0002D0FD171
:1072C000326C7568280001F0C1F97068316C0844AF
:1072D00070607068B16888421BD33068706018E0D5
:1072E000326CD6F80C80404601F0B0F9F068316C91
:1072F00049420844F060F0683168884204D2B068BE
:10730000316C49420844F060022D02D1002C00D0BB
:10731000641E641CB4633800BDE8F08110B50C0035
:10732000016C00290ED0C168026C1144C160C168B3
:107330008268914201D30168C160026CC16820007B
:1073400001F084F910BD70B5040001F06CFF94F9F0
:10735000455010E0200000F0C8F800280AD000F0E6
:10736000E8FC07E014F1240000F04AFC002801D0FA
:1073700000F0DFFC6D1E280040B2012805DBA06C88
:107380000028E7D1606A0028ECD15FF0FF3584F86F
:10739000455001F065FF01F046FF94F9446008E0B4
:1073A00014F1100000F02CFC002801D000F0C1FC0A
:1073B000761E300040B2012802DB20690028EFD1A0
:1073C00084F8445001F04CFF70BD10B5040001F08A
:1073D0002AFFA06B002801D1012400E0002401F065
:1073E0003FFF200010BD10B5040001F01CFFA06B92
:1073F000E16B884201D1012400E0002401F030FF5C
:10740000200010BD80B5002809D101F054F82020DB
:1074100080F31188BFF34F8FBFF36F8FFEE7816B4F
:10742000C06B814201D1012000E0002002BD10B4F8
:10743000002300E05B1C082B09D2064C54F83320D3
:10744000002AF7D144F8331004EBC301486010BCA4
:10745000704700008CBC212070B504000D001600A0
:1074600001F0E1FE94F9440010F1010F02D1002077
:1074700084F8440094F9450010F1010F02D1002076
:1074800084F8450001F0ECFEA06B002805D1320025
:10749000290014F1240000F095FB2000FFF753FFB2
:1074A00070BD80B500220421FFF767F902BD38B531
:1074B00004000D0001F0B7FEA06C002801D00024EC
:1074C00006E0A06B002801D0002401E0A56401249F
